{
  "contractName": "Casino",
  "abi": [
    {
      "inputs": [
        {
          "internalType": "string",
          "name": "_nameCasino",
          "type": "string"
        },
        {
          "internalType": "uint256",
          "name": "_fees",
          "type": "uint256"
        },
        {
          "internalType": "string",
          "name": "_nameToken",
          "type": "string"
        },
        {
          "internalType": "string",
          "name": "_symbolToken",
          "type": "string"
        },
        {
          "internalType": "uint256",
          "name": "_multiplyToken",
          "type": "uint256"
        }
      ],
      "payable": false,
      "stateMutability": "nonpayable",
      "type": "constructor"
    },
    {
      "anonymous": false,
      "inputs": [
        {
          "indexed": true,
          "internalType": "address",
          "name": "previousOwner",
          "type": "address"
        },
        {
          "indexed": true,
          "internalType": "address",
          "name": "newOwner",
          "type": "address"
        }
      ],
      "name": "OwnershipTransferred",
      "type": "event"
    },
    {
      "anonymous": false,
      "inputs": [
        {
          "indexed": false,
          "internalType": "uint256",
          "name": "_totalSupply",
          "type": "uint256"
        },
        {
          "indexed": false,
          "internalType": "uint256",
          "name": "_availableSupply",
          "type": "uint256"
        }
      ],
      "name": "newAddLiquidity",
      "type": "event"
    },
    {
      "anonymous": false,
      "inputs": [
        {
          "indexed": false,
          "internalType": "uint256",
          "name": "_amount",
          "type": "uint256"
        }
      ],
      "name": "newBuy",
      "type": "event"
    },
    {
      "anonymous": false,
      "inputs": [
        {
          "indexed": false,
          "internalType": "uint256",
          "name": "_amount",
          "type": "uint256"
        }
      ],
      "name": "newLoose",
      "type": "event"
    },
    {
      "anonymous": false,
      "inputs": [
        {
          "indexed": false,
          "internalType": "string",
          "name": "_name",
          "type": "string"
        }
      ],
      "name": "newRegistered",
      "type": "event"
    },
    {
      "anonymous": false,
      "inputs": [
        {
          "indexed": false,
          "internalType": "uint256",
          "name": "_amount",
          "type": "uint256"
        }
      ],
      "name": "newSell",
      "type": "event"
    },
    {
      "anonymous": false,
      "inputs": [
        {
          "indexed": false,
          "internalType": "uint256",
          "name": "_amount",
          "type": "uint256"
        }
      ],
      "name": "newWin",
      "type": "event"
    },
    {
      "anonymous": false,
      "inputs": [
        {
          "indexed": false,
          "internalType": "uint256",
          "name": "_amount",
          "type": "uint256"
        }
      ],
      "name": "newWithdrawBenefit",
      "type": "event"
    },
    {
      "anonymous": false,
      "inputs": [
        {
          "indexed": false,
          "internalType": "uint256",
          "name": "_totalSupply",
          "type": "uint256"
        },
        {
          "indexed": false,
          "internalType": "uint256",
          "name": "_availableSupply",
          "type": "uint256"
        }
      ],
      "name": "newWithdrawLiquidity",
      "type": "event"
    },
    {
      "constant": true,
      "inputs": [],
      "name": "availableSupply",
      "outputs": [
        {
          "internalType": "uint256",
          "name": "",
          "type": "uint256"
        }
      ],
      "payable": false,
      "stateMutability": "view",
      "type": "function"
    },
    {
      "constant": true,
      "inputs": [],
      "name": "fees",
      "outputs": [
        {
          "internalType": "uint256",
          "name": "",
          "type": "uint256"
        }
      ],
      "payable": false,
      "stateMutability": "view",
      "type": "function"
    },
    {
      "constant": true,
      "inputs": [],
      "name": "getBalance",
      "outputs": [
        {
          "internalType": "uint256",
          "name": "",
          "type": "uint256"
        }
      ],
      "payable": false,
      "stateMutability": "view",
      "type": "function"
    },
    {
      "constant": true,
      "inputs": [],
      "name": "getName",
      "outputs": [
        {
          "internalType": "string",
          "name": "",
          "type": "string"
        }
      ],
      "payable": false,
      "stateMutability": "view",
      "type": "function"
    },
    {
      "constant": true,
      "inputs": [],
      "name": "multiplyToken",
      "outputs": [
        {
          "internalType": "uint256",
          "name": "",
          "type": "uint256"
        }
      ],
      "payable": false,
      "stateMutability": "view",
      "type": "function"
    },
    {
      "constant": true,
      "inputs": [],
      "name": "nameCasino",
      "outputs": [
        {
          "internalType": "string",
          "name": "",
          "type": "string"
        }
      ],
      "payable": false,
      "stateMutability": "view",
      "type": "function"
    },
    {
      "constant": true,
      "inputs": [],
      "name": "nameToken",
      "outputs": [
        {
          "internalType": "string",
          "name": "",
          "type": "string"
        }
      ],
      "payable": false,
      "stateMutability": "view",
      "type": "function"
    },
    {
      "constant": true,
      "inputs": [],
      "name": "owner",
      "outputs": [
        {
          "internalType": "address",
          "name": "",
          "type": "address"
        }
      ],
      "payable": false,
      "stateMutability": "view",
      "type": "function"
    },
    {
      "constant": true,
      "inputs": [],
      "name": "symbolToken",
      "outputs": [
        {
          "internalType": "string",
          "name": "",
          "type": "string"
        }
      ],
      "payable": false,
      "stateMutability": "view",
      "type": "function"
    },
    {
      "constant": true,
      "inputs": [],
      "name": "totalSupply",
      "outputs": [
        {
          "internalType": "uint256",
          "name": "",
          "type": "uint256"
        }
      ],
      "payable": false,
      "stateMutability": "view",
      "type": "function"
    },
    {
      "constant": false,
      "inputs": [
        {
          "internalType": "address",
          "name": "newOwner",
          "type": "address"
        }
      ],
      "name": "transferOwnership",
      "outputs": [],
      "payable": false,
      "stateMutability": "nonpayable",
      "type": "function"
    },
    {
      "constant": false,
      "inputs": [],
      "name": "addLiquidity",
      "outputs": [],
      "payable": true,
      "stateMutability": "payable",
      "type": "function"
    },
    {
      "constant": false,
      "inputs": [
        {
          "internalType": "uint256",
          "name": "_amount",
          "type": "uint256"
        }
      ],
      "name": "withdrawLiquidity",
      "outputs": [],
      "payable": false,
      "stateMutability": "nonpayable",
      "type": "function"
    },
    {
      "constant": false,
      "inputs": [],
      "name": "withdrawBenefit",
      "outputs": [],
      "payable": false,
      "stateMutability": "nonpayable",
      "type": "function"
    },
    {
      "constant": false,
      "inputs": [
        {
          "internalType": "string",
          "name": "_name",
          "type": "string"
        }
      ],
      "name": "register",
      "outputs": [],
      "payable": false,
      "stateMutability": "nonpayable",
      "type": "function"
    },
    {
      "constant": false,
      "inputs": [
        {
          "internalType": "string",
          "name": "_name",
          "type": "string"
        }
      ],
      "name": "modifyMyName",
      "outputs": [],
      "payable": false,
      "stateMutability": "nonpayable",
      "type": "function"
    },
    {
      "constant": false,
      "inputs": [],
      "name": "buyToken",
      "outputs": [],
      "payable": true,
      "stateMutability": "payable",
      "type": "function"
    },
    {
      "constant": false,
      "inputs": [
        {
          "internalType": "uint256",
          "name": "_amount",
          "type": "uint256"
        }
      ],
      "name": "sellToken",
      "outputs": [],
      "payable": false,
      "stateMutability": "nonpayable",
      "type": "function"
    },
    {
      "constant": false,
      "inputs": [
        {
          "internalType": "uint256",
          "name": "_amount",
          "type": "uint256"
        },
        {
          "internalType": "uint256",
          "name": "_choice",
          "type": "uint256"
        }
      ],
      "name": "headsTails",
      "outputs": [],
      "payable": false,
      "stateMutability": "nonpayable",
      "type": "function"
    },
    {
      "constant": false,
      "inputs": [
        {
          "internalType": "uint256",
          "name": "_amount",
          "type": "uint256"
        },
        {
          "internalType": "uint256",
          "name": "_choice",
          "type": "uint256"
        }
      ],
      "name": "wheel",
      "outputs": [],
      "payable": false,
      "stateMutability": "nonpayable",
      "type": "function"
    }
  ],
  "bytecode": "0x60806040526001600a553480156200001657600080fd5b50604051620028e3380380620028e3833981810160405260a08110156200003c57600080fd5b81019080805160405193929190846401000000008211156200005d57600080fd5b838201915060208201858111156200007457600080fd5b82518660018202830111640100000000821117156200009257600080fd5b8083526020830192505050908051906020019080838360005b83811015620000c8578082015181840152602081019050620000ab565b50505050905090810190601f168015620000f65780820380516001836020036101000a031916815260200191505b5060405260200180519060200190929190805160405193929190846401000000008211156200012457600080fd5b838201915060208201858111156200013b57600080fd5b82518660018202830111640100000000821117156200015957600080fd5b8083526020830192505050908051906020019080838360005b838110156200018f57808201518184015260208101905062000172565b50505050905090810190601f168015620001bd5780820380516001836020036101000a031916815260200191505b5060405260200180516040519392919084640100000000821115620001e157600080fd5b83820191506020820185811115620001f857600080fd5b82518660018202830111640100000000821117156200021657600080fd5b8083526020830192505050908051906020019080838360005b838110156200024c5780820151818401526020810190506200022f565b50505050905090810190601f1680156200027a5780820380516001836020036101000a031916815260200191505b506040526020018051906020019092919050505033600260006101000a81548173ffffffffffffffffffffffffffffffffffffffff021916908373ffffffffffffffffffffffffffffffffffffffff1602179055508460089080519060200190620002e792919062000333565b508360098190555082600390805190602001906200030792919062000333565b5081600490805190602001906200032092919062000333565b50806007819055505050505050620003e2565b828054600181600116156101000203166002900490600052602060002090601f016020900481019282601f106200037657805160ff1916838001178555620003a7565b82800160010185558215620003a7579182015b82811115620003a657825182559160200191906001019062000389565b5b509050620003b69190620003ba565b5090565b620003df91905b80821115620003db576000816000905550600101620003c1565b5090565b90565b6124f180620003f26000396000f3fe60806040526004361061011e5760003560e01c80638da5cb5b116100a0578063d14ee4da11610064578063d14ee4da146105bf578063dd12d8a5146105ea578063e8078d941461067a578063f2c298be14610684578063f2fde38b1461074c5761011e565b80638da5cb5b1461048c5780639865667e146104e35780639af1d35a146104fa578063a482171914610525578063c5c665581461052f5761011e565b80631d22bea8116100e75780631d22bea81461030c5780632397e4d7146103515780632c266da31461038c5780636e311784146103d15780637ecc2b56146104615761011e565b806249fa51146101235780630a861f2a146101eb57806312065fe01461022657806317d7de7c1461025157806318160ddd146102e1575b600080fd5b34801561012f57600080fd5b506101e96004803603602081101561014657600080fd5b810190808035906020019064010000000081111561016357600080fd5b82018360208201111561017557600080fd5b8035906020019184600183028401116401000000008311171561019757600080fd5b91908080601f016020809104026020016040519081016040528093929190818152602001838380828437600081840152601f19601f82011690508083019250505050505050919291929050505061079d565b005b3480156101f757600080fd5b506102246004803603602081101561020e57600080fd5b810190808035906020019092919050505061095c565b005b34801561023257600080fd5b5061023b610ad1565b6040518082815260200191505060405180910390f35b34801561025d57600080fd5b50610266610b1b565b6040518080602001828103825283818151815260200191508051906020019080838360005b838110156102a657808201518184015260208101905061028b565b50505050905090810190601f1680156102d35780820380516001836020036101000a031916815260200191505b509250505060405180910390f35b3480156102ed57600080fd5b506102f6610bfd565b6040518082815260200191505060405180910390f35b34801561031857600080fd5b5061034f6004803603604081101561032f57600080fd5b810190808035906020019092919080359060200190929190505050610c03565b005b34801561035d57600080fd5b5061038a6004803603602081101561037457600080fd5b810190808035906020019092919050505061107b565b005b34801561039857600080fd5b506103cf600480360360408110156103af57600080fd5b8101908080359060200190929190803590602001909291905050506112a5565b005b3480156103dd57600080fd5b506103e661164a565b6040518080602001828103825283818151815260200191508051906020019080838360005b8381101561042657808201518184015260208101905061040b565b50505050905090810190601f1680156104535780820380516001836020036101000a031916815260200191505b509250505060405180910390f35b34801561046d57600080fd5b506104766116e8565b6040518082815260200191505060405180910390f35b34801561049857600080fd5b506104a16116ee565b604051808273ffffffffffffffffffffffffffffffffffffffff1673ffffffffffffffffffffffffffffffffffffffff16815260200191505060405180910390f35b3480156104ef57600080fd5b506104f8611714565b005b34801561050657600080fd5b5061050f61180c565b6040518082815260200191505060405180910390f35b61052d611812565b005b34801561053b57600080fd5b506105446119b7565b6040518080602001828103825283818151815260200191508051906020019080838360005b83811015610584578082015181840152602081019050610569565b50505050905090810190601f1680156105b15780820380516001836020036101000a031916815260200191505b509250505060405180910390f35b3480156105cb57600080fd5b506105d4611a55565b6040518082815260200191505060405180910390f35b3480156105f657600080fd5b506105ff611a5b565b6040518080602001828103825283818151815260200191508051906020019080838360005b8381101561063f578082015181840152602081019050610624565b50505050905090810190601f16801561066c5780820380516001836020036101000a031916815260200191505b509250505060405180910390f35b610682611af9565b005b34801561069057600080fd5b5061074a600480360360208110156106a757600080fd5b81019080803590602001906401000000008111156106c457600080fd5b8201836020820111156106d657600080fd5b803590602001918460018302840111640100000000831117156106f857600080fd5b91908080601f016020809104026020016040519081016040528093929190818152602001838380828437600081840152601f19601f820116905080830192505050505050509192919290505050611bc0565b005b34801561075857600080fd5b5061079b6004803603602081101561076f57600080fd5b81019080803573ffffffffffffffffffffffffffffffffffffffff169060200190929190505050611ed2565b005b60011515600160003373ffffffffffffffffffffffffffffffffffffffff1673ffffffffffffffffffffffffffffffffffffffff16815260200190815260200160002060020160009054906101000a900460ff16151514610866576040517f08c379a00000000000000000000000000000000000000000000000000000000081526004018080602001828103825260188152602001807f456e72656769737472657a20766f757320642061626f7264000000000000000081525060200191505060405180910390fd5b80600160003373ffffffffffffffffffffffffffffffffffffffff1673ffffffffffffffffffffffffffffffffffffffff16815260200190815260200160002060010190805190602001906108bc929190612316565b507f6bb826e40ad8f8913265d7500adfb7e0b9c967febe190213625cc1b86281f845816040518080602001828103825283818151815260200191508051906020019080838360005b8381101561091f578082015181840152602081019050610904565b50505050905090810190601f16801561094c5780820380516001836020036101000a031916815260200191505b509250505060405180910390a150565b600260009054906101000a900473ffffffffffffffffffffffffffffffffffffffff1673ffffffffffffffffffffffffffffffffffffffff163373ffffffffffffffffffffffffffffffffffffffff16146109b657600080fd5b600654811115610a11576040517f08c379a000000000000000000000000000000000000000000000000000000000815260040180806020018281038252602881526020018061245e6028913960400191505060405180910390fd5b80600560008282540392505081905550806006600082825403925050819055503373ffffffffffffffffffffffffffffffffffffffff166108fc6007548381610a5657fe5b049081150290604051600060405180830381858888f19350505050158015610a82573d6000803e3d6000fd5b50610a8b612026565b7fa156ff426a566c405d9cd86e1f74011f052a0aa4a0ccf731719d2da04811b70d600554600654604051808381526020018281526020019250505060405180910390a150565b6000600160003373ffffffffffffffffffffffffffffffffffffffff1673ffffffffffffffffffffffffffffffffffffffff16815260200190815260200160002060000154905090565b6060600160003373ffffffffffffffffffffffffffffffffffffffff1673ffffffffffffffffffffffffffffffffffffffff1681526020019081526020016000206001018054600181600116156101000203166002900480601f016020809104026020016040519081016040528092919081815260200182805460018160011615610100020316600290048015610bf35780601f10610bc857610100808354040283529160200191610bf3565b820191906000526020600020905b815481529060010190602001808311610bd657829003601f168201915b5050505050905090565b60055481565b60011515600160003373ffffffffffffffffffffffffffffffffffffffff1673ffffffffffffffffffffffffffffffffffffffff16815260200190815260200160002060020160009054906101000a900460ff16151514610c6357600080fd5b60246007548381610c7057fe5b040260075481026006541015610cd1576040517f08c379a00000000000000000000000000000000000000000000000000000000081526004018080602001828103825260378152602001806124866037913960400191505060405180910390fd5b600160003373ffffffffffffffffffffffffffffffffffffffff1673ffffffffffffffffffffffffffffffffffffffff16815260200190815260200160002060000154831115610d89576040517f08c379a000000000000000000000000000000000000000000000000000000000815260040180806020018281038252601f8152602001807f566575696c6c657a206163686574657220706c757320646520746f6b656e730081525060200191505060405180910390fd5b602482108015610d9a575060008210155b610e0c576040517f08c379a00000000000000000000000000000000000000000000000000000000081526004018080602001828103825260208152602001807f6e6f6d627265206e6f6e20636f6d7072697320656e747265203020657420333681525060200191505060405180910390fd5b6000610e18602461207d565b9050600081148015610e2a5750600083145b15610ecf5760248402600160003373ffffffffffffffffffffffffffffffffffffffff1673ffffffffffffffffffffffffffffffffffffffff16815260200190815260200160002060000160008282540192505081905550610e8b84612117565b610e93612026565b7fcf26d99c0fdd47f1f0bc4c09748147f6aee7413d22baa8783972770447562998846040518082815260200191505060405180910390a1611022565b60028181610ed957fe5b0660028481610ee457fe5b061415610f885783600160003373ffffffffffffffffffffffffffffffffffffffff1673ffffffffffffffffffffffffffffffffffffffff16815260200190815260200160002060000160008282540192505081905550610f4484612117565b610f4c612026565b7fcf26d99c0fdd47f1f0bc4c09748147f6aee7413d22baa8783972770447562998846040518082815260200191505060405180910390a1611021565b83600160003373ffffffffffffffffffffffffffffffffffffffff1673ffffffffffffffffffffffffffffffffffffffff16815260200190815260200160002060000160008282540392505081905550610fe1846121da565b610fe9612026565b7f3c534428116a70bcae5f3a24b74ee420da1074e735b63981bd204a4fa7fb7361846040518082815260200191505060405180910390a15b5b6000600160003373ffffffffffffffffffffffffffffffffffffffff1673ffffffffffffffffffffffffffffffffffffffff16815260200190815260200160002060000154146110755761107461229d565b5b50505050565b60011515600160003373ffffffffffffffffffffffffffffffffffffffff1673ffffffffffffffffffffffffffffffffffffffff16815260200190815260200160002060020160009054906101000a900460ff161515146110db57600080fd5b80600160003373ffffffffffffffffffffffffffffffffffffffff1673ffffffffffffffffffffffffffffffffffffffff168152602001908152602001600020600001541015611176576040517f08c379a000000000000000000000000000000000000000000000000000000000815260040180806020018281038252602281526020018061243c6022913960400191505060405180910390fd5b80600160003373ffffffffffffffffffffffffffffffffffffffff1673ffffffffffffffffffffffffffffffffffffffff168152602001908152602001600020600001600082825403925050819055506111cf816121da565b3373ffffffffffffffffffffffffffffffffffffffff166108fc60075483816111f457fe5b049081150290604051600060405180830381858888f19350505050158015611220573d6000803e3d6000fd5b50611229612026565b7f20260897c7c0889ca560a3fa35ff4a978867358286d281b6d641acba65722c4c600160003373ffffffffffffffffffffffffffffffffffffffff1673ffffffffffffffffffffffffffffffffffffffff168152602001908152602001600020600001546040518082815260200191505060405180910390a150565b60011515600160003373ffffffffffffffffffffffffffffffffffffffff1673ffffffffffffffffffffffffffffffffffffffff16815260200190815260200160002060020160009054906101000a900460ff1615151461130557600080fd5b600754828161131057fe5b0460075481026006541015611370576040517f08c379a00000000000000000000000000000000000000000000000000000000081526004018080602001828103825260378152602001806124866037913960400191505060405180910390fd5b600160003373ffffffffffffffffffffffffffffffffffffffff1673ffffffffffffffffffffffffffffffffffffffff16815260200190815260200160002060000154831115611428576040517f08c379a000000000000000000000000000000000000000000000000000000000815260040180806020018281038252601f8152602001807f566575696c6c657a206163686574657220706c757320646520746f6b656e730081525060200191505060405180910390fd5b600282108015611439575060008210155b6114ab576040517f08c379a000000000000000000000000000000000000000000000000000000000815260040180806020018281038252601f8152602001807f6e6f6d627265206e6f6e20636f6d7072697320656e747265203020657420310081525060200191505060405180910390fd5b816114b6600261207d565b14156115595782600160003373ffffffffffffffffffffffffffffffffffffffff1673ffffffffffffffffffffffffffffffffffffffff1681526020019081526020016000206000016000828254019250508190555061151583612117565b61151d612026565b7fcf26d99c0fdd47f1f0bc4c09748147f6aee7413d22baa8783972770447562998836040518082815260200191505060405180910390a16115f2565b82600160003373ffffffffffffffffffffffffffffffffffffffff1673ffffffffffffffffffffffffffffffffffffffff168152602001908152602001600020600001600082825403925050819055506115b2836121da565b6115ba612026565b7f3c534428116a70bcae5f3a24b74ee420da1074e735b63981bd204a4fa7fb7361836040518082815260200191505060405180910390a15b6000600160003373ffffffffffffffffffffffffffffffffffffffff1673ffffffffffffffffffffffffffffffffffffffff16815260200190815260200160002060000154146116455761164461229d565b5b505050565b60038054600181600116156101000203166002900480601f0160208091040260200160405190810160405280929190818152602001828054600181600116156101000203166002900480156116e05780601f106116b5576101008083540402835291602001916116e0565b820191906000526020600020905b8154815290600101906020018083116116c357829003601f168201915b505050505081565b60065481565b600260009054906101000a900473ffffffffffffffffffffffffffffffffffffffff1681565b600260009054906101000a900473ffffffffffffffffffffffffffffffffffffffff1673ffffffffffffffffffffffffffffffffffffffff163373ffffffffffffffffffffffffffffffffffffffff161461176e57600080fd5b3373ffffffffffffffffffffffffffffffffffffffff166108fc6007546005548161179557fe5b0447039081150290604051600060405180830381858888f193505050501580156117c3573d6000803e3d6000fd5b507fec5c38419ca0c872dfb010bb550095ccd768ec7b5bdf6f0f8fddf3cda47fbd71600754600554816117f257fe5b0447036040518082815260200191505060405180910390a1565b60095481565b60011515600160003373ffffffffffffffffffffffffffffffffffffffff1673ffffffffffffffffffffffffffffffffffffffff16815260200190815260200160002060020160009054906101000a900460ff1615151461187257600080fd5b34600754810260065410156118d2576040517f08c379a00000000000000000000000000000000000000000000000000000000081526004018080602001828103825260378152602001806124866037913960400191505060405180910390fd5b6007543402600160003373ffffffffffffffffffffffffffffffffffffffff1673ffffffffffffffffffffffffffffffffffffffff168152602001908152602001600020600001600082825401925050819055506119336007543402612117565b61193b612026565b7f56a3bc2feec16f8d8fb51db1acec14aefa409f6dd616666ec0e23838e162e4b1600160003373ffffffffffffffffffffffffffffffffffffffff1673ffffffffffffffffffffffffffffffffffffffff168152602001908152602001600020600001546040518082815260200191505060405180910390a150565b60088054600181600116156101000203166002900480601f016020809104026020016040519081016040528092919081815260200182805460018160011615610100020316600290048015611a4d5780601f10611a2257610100808354040283529160200191611a4d565b820191906000526020600020905b815481529060010190602001808311611a3057829003601f168201915b505050505081565b60075481565b60048054600181600116156101000203166002900480601f016020809104026020016040519081016040528092919081815260200182805460018160011615610100020316600290048015611af15780601f10611ac657610100808354040283529160200191611af1565b820191906000526020600020905b815481529060010190602001808311611ad457829003601f168201915b505050505081565b600260009054906101000a900473ffffffffffffffffffffffffffffffffffffffff1673ffffffffffffffffffffffffffffffffffffffff163373ffffffffffffffffffffffffffffffffffffffff1614611b5357600080fd5b600754340260056000828254019250508190555060075434026006600082825401925050819055507fe68597b28a1d3f4072c48d9ded0927883a5d366ad460dabe62f789c85ce76134600554600654604051808381526020018281526020019250505060405180910390a1565b60001515600160003373ffffffffffffffffffffffffffffffffffffffff1673ffffffffffffffffffffffffffffffffffffffff16815260200190815260200160002060020160009054906101000a900460ff16151514611c89576040517f08c379a000000000000000000000000000000000000000000000000000000000815260040180806020018281038252601e8152602001807f566f757320657465732064656a6120636f6e6e7520647520436173696e6f000081525060200191505060405180910390fd5b80600160003373ffffffffffffffffffffffffffffffffffffffff1673ffffffffffffffffffffffffffffffffffffffff1681526020019081526020016000206001019080519060200190611cdf929190612316565b5060018060003373ffffffffffffffffffffffffffffffffffffffff1673ffffffffffffffffffffffffffffffffffffffff16815260200190815260200160002060020160006101000a81548160ff02191690831515021790555060006040518060800160405280600081526020018381526020016001151581526020013373ffffffffffffffffffffffffffffffffffffffff1681525090806001815401808255809150509060018203906000526020600020906003020160009091929091909150600082015181600001556020820151816001019080519060200190611dc8929190612396565b5060408201518160020160006101000a81548160ff02191690831515021790555060608201518160020160016101000a81548173ffffffffffffffffffffffffffffffffffffffff021916908373ffffffffffffffffffffffffffffffffffffffff1602179055505050507f6bb826e40ad8f8913265d7500adfb7e0b9c967febe190213625cc1b86281f845816040518080602001828103825283818151815260200191508051906020019080838360005b83811015611e95578082015181840152602081019050611e7a565b50505050905090810190601f168015611ec25780820380516001836020036101000a031916815260200191505b509250505060405180910390a150565b600260009054906101000a900473ffffffffffffffffffffffffffffffffffffffff1673ffffffffffffffffffffffffffffffffffffffff163373ffffffffffffffffffffffffffffffffffffffff1614611f2c57600080fd5b600073ffffffffffffffffffffffffffffffffffffffff168173ffffffffffffffffffffffffffffffffffffffff161415611f6657600080fd5b8073ffffffffffffffffffffffffffffffffffffffff16600260009054906101000a900473ffffffffffffffffffffffffffffffffffffffff1673ffffffffffffffffffffffffffffffffffffffff167f8be0079c531659141344cd1fd0a4f28419497f9722a3daafe3b4186f6b6457e060405160405180910390a380600260006101000a81548173ffffffffffffffffffffffffffffffffffffffff021916908373ffffffffffffffffffffffffffffffffffffffff16021790555050565b600080905060008090505b60008054905081101561206e576000818154811061204b57fe5b906000526020600020906003020160000154820191508080600101915050612031565b50806005540360068190555050565b600080824233600a5486604051602001808581526020018473ffffffffffffffffffffffffffffffffffffffff1673ffffffffffffffffffffffffffffffffffffffff1660601b81526014018381526020018281526020019450505050506040516020818303038152906040528051906020012060001c816120fb57fe5b06905080600a6000828254019250508190555080915050919050565b60008090505b6000805490508110156121d6573373ffffffffffffffffffffffffffffffffffffffff166000828154811061214e57fe5b906000526020600020906003020160020160019054906101000a900473ffffffffffffffffffffffffffffffffffffffff1673ffffffffffffffffffffffffffffffffffffffff1614156121c95781600082815481106121aa57fe5b9060005260206000209060030201600001600082825401925050819055505b808060010191505061211d565b5050565b60008090505b600080549050811015612299573373ffffffffffffffffffffffffffffffffffffffff166000828154811061221157fe5b906000526020600020906003020160020160019054906101000a900473ffffffffffffffffffffffffffffffffffffffff1673ffffffffffffffffffffffffffffffffffffffff16141561228c57816000828154811061226d57fe5b9060005260206000209060030201600001600082825403925050819055505b80806001019150506121e0565b5050565b600954600160003373ffffffffffffffffffffffffffffffffffffffff1673ffffffffffffffffffffffffffffffffffffffff168152602001908152602001600020600001600082825403925050819055506122fa6009546121da565b600954600660008282540192505081905550612314612026565b565b828054600181600116156101000203166002900490600052602060002090601f016020900481019282601f1061235757805160ff1916838001178555612385565b82800160010185558215612385579182015b82811115612384578251825591602001919060010190612369565b5b5090506123929190612416565b5090565b828054600181600116156101000203166002900490600052602060002090601f016020900481019282601f106123d757805160ff1916838001178555612405565b82800160010185558215612405579182015b828111156124045782518255916020019190600101906123e9565b5b5090506124129190612416565b5090565b61243891905b8082111561243457600081600090555060010161241c565b5090565b9056fe70617320617373657a20646520746f6b656e20706f7572206c652072657472616974496c206e277920612070617320617373657a20646520746f6b656e7320646973706f6e69626c65734c6520636173696e6f206e27612070617320617373657a20646520666f6e647320706f7572206365747465207472616e73616374696f6ea265627a7a72315820d0b808b1988eb92fda12545e5b8ede1d837cf369271bb020b4e61f88308b8d1664736f6c63430005100032",
  "source": "pragma solidity ^0.5.16;\r\n\r\nimport \"./token.sol\" ; \r\n\r\n// SPDX-License-Identifier: MIT\r\n\r\ncontract Casino is Token {\r\n    string public nameCasino ; // Nom du casino\r\n    uint public fees ; // frais prlevs lors d'un jeu \r\n    uint private nonce = 1 ; // nonce pour la fonction random \r\n\r\n    // Constructeur \r\n    constructor (string memory _nameCasino, uint _fees, string memory _nameToken, string memory _symbolToken, uint _multiplyToken ) public {\r\n        nameCasino = _nameCasino ; \r\n        fees = _fees ; \r\n        Token.nameToken = _nameToken ; \r\n        Token.symbolToken = _symbolToken ;  \r\n        Token.multiplyToken = _multiplyToken ; \r\n    }\r\n\r\n    // Event \r\n    event newWin(uint _amount);\r\n    event newLoose(uint _amount); \r\n    event newAddLiquidity(uint _totalSupply, uint _availableSupply) ; \r\n    event newWithdrawLiquidity(uint _totalSupply, uint _availableSupply) ;\r\n    event newRegistered(string _name); \r\n    event newBuy(uint _amount);\r\n    event newSell(uint _amount); \r\n    event newWithdrawBenefit(uint _amount); \r\n\r\n    // Appellable uniquement par le crateur du casino \r\n    // Fonction pour ajouter de la liquidit au casino (ajouter des jetons au casino) \r\n    // Chaque token est back par de l'ether\r\n    // Application d'un coefficient multiplicateur dfini par la crateur du casino pour avoir une mise plus petite\r\n    function addLiquidity() payable external onlyOwner(){\r\n        Token.totalSupply += msg.value * Token.multiplyToken;\r\n        Token.availableSupply += msg.value * Token.multiplyToken; \r\n        emit newAddLiquidity(Token.totalSupply, Token.availableSupply);\r\n    }\r\n\r\n    // Fonction pour retirer de la liquidit (retirer des jetons du casino et rcuprer de l'ether)\r\n    function withdrawLiquidity(uint _amount) external onlyOwner(){\r\n        require (_amount <= availableSupply, \"Il n'y a pas assez de tokens disponibles\") ; \r\n        Token.totalSupply -= _amount ; \r\n        Token.availableSupply -= _amount ;\r\n        msg.sender.transfer(_amount/Token.multiplyToken );\r\n        Token.updateAvailableSupply();\r\n        emit newWithdrawLiquidity( Token.totalSupply, Token.availableSupply) ;\r\n    }\r\n\r\n    // Fonction pour retirer les bnfices, c'est  dire les eth en trop sur le smart contract par rapport aux jetons en circulation\r\n    function withdrawBenefit() external onlyOwner(){\r\n        msg.sender.transfer(address(this).balance - Token.totalSupply / Token.multiplyToken);\r\n        emit newWithdrawBenefit(address(this).balance - Token.totalSupply / Token.multiplyToken);\r\n    }\r\n\r\n\r\n    // Fonction pour s'enregistrer en tant que joueur dans le casino\r\n    // Obligatoire avant de procder avant tout autre opration \r\n    function register(string memory _name) public {\r\n        require (user[msg.sender].registered == false, \"Vous etes deja connu du Casino\"); \r\n        user[msg.sender].name = _name ; \r\n        user[msg.sender].registered = true ; \r\n        users.push(User(0, _name, true, msg.sender)); \r\n        emit newRegistered(_name);\r\n    }\r\n\r\n    // Fonction pour modifier son nom en cas d'erreur\r\n    function modifyMyName(string memory _name) public {\r\n        require (user[msg.sender].registered == true, \"Enregistrez vous d abord\"); \r\n        user[msg.sender].name = _name ; \r\n        emit newRegistered(_name);\r\n    }\r\n\r\n    // Fonction pour acheter des tokens\r\n    // Maximum dfini par le nombre de tokens en circulation\r\n    function buyToken() payable external isRegistered() onlyHaveToken(msg.value){\r\n        user[msg.sender].balance += msg.value * Token.multiplyToken ; \r\n        increaseBalances(msg.value * Token.multiplyToken);\r\n        Token.updateAvailableSupply();\r\n        emit newBuy(user[msg.sender].balance);\r\n    }\r\n\r\n    // Fonction pour vendre ses tokens \r\n    // Vrificattion de la balance de l'utilisateur avant la vente \r\n    // Les tokens vendus sont de nouveau disponible en circulation \r\n    function sellToken(uint _amount) external isRegistered() {\r\n        require (user[msg.sender].balance >= _amount, \"pas assez de token pour le retrait\"); \r\n        user[msg.sender].balance -= _amount ; \r\n        decreaseBalances(_amount);\r\n        msg.sender.transfer(_amount/Token.multiplyToken ); \r\n        Token.updateAvailableSupply(); \r\n        emit newSell(user[msg.sender].balance);\r\n    }\r\n\r\n    // Fonction pour payer les frais de transaction lors d'un jeu \r\n    function payFees() internal {\r\n        user[msg.sender].balance -= fees ;\r\n        decreaseBalances(fees); \r\n        availableSupply += fees; \r\n        Token.updateAvailableSupply();\r\n    }\r\n\r\n    // Fonction pour gnrer un nombre alatoire \r\n    function random(uint _n) private returns (uint) {\r\n        uint randomnumber = uint(keccak256(abi.encodePacked(block.timestamp, msg.sender, nonce, _n))) % _n;\r\n        nonce += randomnumber;        \r\n        return randomnumber;\r\n    }\r\n\r\n    // Jeu pile ou face \r\n    function headsTails (uint _amount, uint _choice) external isRegistered() onlyHaveToken(_amount/Token.multiplyToken){\r\n        require(_amount <= user[msg.sender].balance, \"Veuillez acheter plus de tokens\");\r\n        require (_choice < 2 && _choice >= 0, \"nombre non compris entre 0 et 1\"); \r\n        if (random(2) == _choice){\r\n            user[msg.sender].balance += _amount ;\r\n            increaseBalances(_amount) ; \r\n            Token.updateAvailableSupply();\r\n            emit newWin(_amount); \r\n        } else {\r\n            user[msg.sender].balance -= _amount ;\r\n            decreaseBalances(_amount) ;\r\n            Token.updateAvailableSupply();\r\n            emit newLoose(_amount); \r\n        }\r\n        if (user[msg.sender].balance != 0){\r\n            payFees();\r\n        }\r\n         \r\n    }\r\n\r\n    // Jeu roulette \r\n    function wheel (uint _amount, uint _choice) public isRegistered() onlyHaveToken(_amount/Token.multiplyToken*36){\r\n        require(_amount <= user[msg.sender].balance, \"Veuillez acheter plus de tokens\");\r\n        require (_choice < 36 && _choice >= 0, \"nombre non compris entre 0 et 36\"); \r\n        uint r = random(36) ; \r\n        \r\n        if (r == 0 && _choice == 0){\r\n            user[msg.sender].balance += _amount * 36;\r\n            increaseBalances(_amount) ; \r\n            Token.updateAvailableSupply();\r\n            emit newWin(_amount); \r\n        } else if (_choice % 2 == r % 2){\r\n            user[msg.sender].balance += _amount ;\r\n            increaseBalances(_amount) ; \r\n            Token.updateAvailableSupply();\r\n            emit newWin(_amount);\r\n        } else {\r\n            user[msg.sender].balance -= _amount ;\r\n            decreaseBalances(_amount) ; \r\n            Token.updateAvailableSupply();\r\n            emit newLoose(_amount);\r\n        }\r\n        if (user[msg.sender].balance != 0){\r\n            payFees();\r\n        } \r\n    }\r\n\r\n\r\n    // Fonctions pour mettre  jour le tableau utilisateurs\r\n    function increaseBalances(uint _amount) private {\r\n        for (uint i = 0 ; i < users.length ; i ++){\r\n            if (users[i].id == msg.sender){\r\n                users[i].balance += _amount ; \r\n            }\r\n        }\r\n    }\r\n\r\n    function decreaseBalances(uint _amount) private {\r\n        for (uint i = 0 ; i < users.length ; i ++){\r\n            if (users[i].id == msg.sender){\r\n                users[i].balance -= _amount ; \r\n            }\r\n        }\r\n    }\r\n\r\n\r\n    \r\n}",
  "sourcePath": "D:/BUREAU/Travail/ESGI/3ESGI IBC/Protocole Ethereum/eth-project/contracts/casino.sol",
  "compiler": {
    "name": "solc",
    "version": "0.5.16+commit.9c3226ce.Emscripten.clang"
  },
  "schemaVersion": "3.3.2",
  "updatedAt": "2021-01-25T19:07:06.221Z",
  "networkType": "ethereum",
  "devdoc": {
    "methods": {
      "transferOwnership(address)": {
        "details": "Allows the current owner to transfer control of the contract to a newOwner.",
        "params": {
          "newOwner": "The address to transfer ownership to."
        }
      }
    }
  },
  "userdoc": {
    "methods": {}
  }
}