{
  "contractName": "UserContract",
  "abi": [
    {
      "constant": true,
      "inputs": [],
      "name": "getBalance",
      "outputs": [
        {
          "internalType": "uint256",
          "name": "",
          "type": "uint256"
        }
      ],
      "payable": false,
      "stateMutability": "view",
      "type": "function"
    },
    {
      "constant": true,
      "inputs": [],
      "name": "getName",
      "outputs": [
        {
          "internalType": "string",
          "name": "",
          "type": "string"
        }
      ],
      "payable": false,
      "stateMutability": "view",
      "type": "function"
    }
  ],
  "bytecode": "0x608060405234801561001057600080fd5b5061023d806100206000396000f3fe608060405234801561001057600080fd5b50600436106100365760003560e01c806312065fe01461003b57806317d7de7c14610059575b600080fd5b6100436100dc565b6040518082815260200191505060405180910390f35b610061610126565b6040518080602001828103825283818151815260200191508051906020019080838360005b838110156100a1578082015181840152602081019050610086565b50505050905090810190601f1680156100ce5780820380516001836020036101000a031916815260200191505b509250505060405180910390f35b6000600160003373ffffffffffffffffffffffffffffffffffffffff1673ffffffffffffffffffffffffffffffffffffffff16815260200190815260200160002060000154905090565b6060600160003373ffffffffffffffffffffffffffffffffffffffff1673ffffffffffffffffffffffffffffffffffffffff1681526020019081526020016000206001018054600181600116156101000203166002900480601f0160208091040260200160405190810160405280929190818152602001828054600181600116156101000203166002900480156101fe5780601f106101d3576101008083540402835291602001916101fe565b820191906000526020600020905b8154815290600101906020018083116101e157829003601f168201915b505050505090509056fea265627a7a72315820c4ce30502ea29d3170fbba588a7a518e9ef32b1a1ef801f01ec888ffaaa3d77e64736f6c63430005100032",
  "source": "pragma solidity ^0.5.16;\r\n\r\ncontract UserContract {\r\n\r\n    struct User {\r\n        uint balance; // Balance de tokens \r\n        string name ; // Nom de l'utilisateur \r\n        bool registered ; // Enregistré ou non \r\n        address id ; // Identifiant correspondant à son addresse \r\n    }\r\n\r\n    // Tableau d'utilisteur pour calculer les tokens disponibles\r\n    User[] users ; \r\n\r\n    mapping (address => User) internal user ;\r\n\r\n    // Modifier pour vérifier qu'un utilistaeur est inscrit avant de jouer \r\n    modifier isRegistered () {\r\n        require (user[msg.sender].registered == true ) ; \r\n        _; \r\n    }\r\n\r\n    // Fonctions pour récupérer la balance et le nom d'un utilisateur \r\n    function getBalance () external view returns (uint) {\r\n        return user[msg.sender].balance ; \r\n    }\r\n    \r\n    function getName () external view returns ( string memory) {\r\n        return user[msg.sender].name ; \r\n    }\r\n    \r\n\r\n}",
  "sourcePath": "D:\\BUREAU\\Travail\\ESGI\\3ESGI IBC\\Protocole Ethereum\\eth-project\\contracts\\user.sol",
  "compiler": {
    "name": "solc",
    "version": "0.5.16+commit.9c3226ce.Emscripten.clang"
  },
  "schemaVersion": "3.3.2",
  "updatedAt": "2021-01-25T19:07:06.229Z",
  "networkType": "ethereum",
  "devdoc": {
    "methods": {}
  },
  "userdoc": {
    "methods": {}
  }
}