{
  "contractName": "UserContract",
  "abi": [
    {
      "constant": true,
      "inputs": [],
      "name": "getBalance",
      "outputs": [
        {
          "internalType": "uint256",
          "name": "",
          "type": "uint256"
        }
      ],
      "payable": false,
      "stateMutability": "view",
      "type": "function"
    },
    {
      "constant": true,
      "inputs": [],
      "name": "getName",
      "outputs": [
        {
          "internalType": "string",
          "name": "",
          "type": "string"
        }
      ],
      "payable": false,
      "stateMutability": "view",
      "type": "function"
    },
    {
      "constant": true,
      "inputs": [],
      "name": "getIsRegistered",
      "outputs": [
        {
          "internalType": "bool",
          "name": "",
          "type": "bool"
        }
      ],
      "payable": false,
      "stateMutability": "view",
      "type": "function"
    }
  ],
  "bytecode": "0x608060405234801561001057600080fd5b506102c1806100206000396000f3fe608060405234801561001057600080fd5b50600436106100415760003560e01c806312065fe01461004657806317d7de7c1461006457806373d4ca94146100e7575b600080fd5b61004e610109565b6040518082815260200191505060405180910390f35b61006c610153565b6040518080602001828103825283818151815260200191508051906020019080838360005b838110156100ac578082015181840152602081019050610091565b50505050905090810190601f1680156100d95780820380516001836020036101000a031916815260200191505b509250505060405180910390f35b6100ef610235565b604051808215151515815260200191505060405180910390f35b6000600160003373ffffffffffffffffffffffffffffffffffffffff1673ffffffffffffffffffffffffffffffffffffffff16815260200190815260200160002060000154905090565b6060600160003373ffffffffffffffffffffffffffffffffffffffff1673ffffffffffffffffffffffffffffffffffffffff1681526020019081526020016000206001018054600181600116156101000203166002900480601f01602080910402602001604051908101604052809291908181526020018280546001816001161561010002031660029004801561022b5780601f106102005761010080835404028352916020019161022b565b820191906000526020600020905b81548152906001019060200180831161020e57829003601f168201915b5050505050905090565b6000600160003373ffffffffffffffffffffffffffffffffffffffff1673ffffffffffffffffffffffffffffffffffffffff16815260200190815260200160002060020160009054906101000a900460ff1690509056fea265627a7a72315820484c38d2cd3b4d5f333e28065abe5d4f6ab64e2eb85c0a27001e0e7495cb5b4464736f6c63430005100032",
  "source": "pragma solidity ^0.5.16;\r\n\r\ncontract UserContract {\r\n\r\n    struct User {\r\n        uint balance; // Balance de tokens \r\n        string name ; // Nom de l'utilisateur \r\n        bool registered ; // Enregistré ou non \r\n        address id ; // Identifiant correspondant à son addresse \r\n    }\r\n\r\n    // Tableau d'utilisteur pour calculer les tokens disponibles\r\n    User[] users; \r\n\r\n    mapping (address => User) internal user ;\r\n\r\n    // Modifier pour vérifier qu'un utilistaeur est inscrit avant de jouer \r\n    modifier isRegistered () {\r\n        require (user[msg.sender].registered == true ) ; \r\n        _; \r\n    }\r\n\r\n    // Fonctions pour récupérer la balance et le nom d'un utilisateur \r\n    function getBalance () external view returns (uint) {\r\n        return user[msg.sender].balance ; \r\n    }\r\n    \r\n    function getName () external view returns ( string memory) {\r\n        return user[msg.sender].name ; \r\n    }\r\n\r\n    function getIsRegistered () external view returns (bool) {\r\n        return user[msg.sender].registered ;\r\n    }\r\n}\r\n",
  "sourcePath": "D:\\BUREAU\\Travail\\ESGI\\3ESGI IBC\\Protocole Ethereum\\eth-project\\src\\contracts\\user.sol",
  "compiler": {
    "name": "solc",
    "version": "0.5.16+commit.9c3226ce.Emscripten.clang"
  },
  "schemaVersion": "3.3.2",
  "updatedAt": "2021-02-26T08:31:55.778Z",
  "devdoc": {
    "methods": {}
  },
  "userdoc": {
    "methods": {}
  }
}