{
  "contractName": "Casino",
  "abi": [
    {
      "inputs": [
        {
          "internalType": "string",
          "name": "_nameCasino",
          "type": "string"
        },
        {
          "internalType": "uint256",
          "name": "_fees",
          "type": "uint256"
        },
        {
          "internalType": "string",
          "name": "_nameToken",
          "type": "string"
        },
        {
          "internalType": "string",
          "name": "_symbolToken",
          "type": "string"
        },
        {
          "internalType": "uint256",
          "name": "_multiplyToken",
          "type": "uint256"
        }
      ],
      "payable": false,
      "stateMutability": "nonpayable",
      "type": "constructor"
    },
    {
      "anonymous": false,
      "inputs": [
        {
          "indexed": true,
          "internalType": "address",
          "name": "previousOwner",
          "type": "address"
        },
        {
          "indexed": true,
          "internalType": "address",
          "name": "newOwner",
          "type": "address"
        }
      ],
      "name": "OwnershipTransferred",
      "type": "event"
    },
    {
      "anonymous": false,
      "inputs": [
        {
          "indexed": false,
          "internalType": "uint256",
          "name": "_amount",
          "type": "uint256"
        }
      ],
      "name": "newBuy",
      "type": "event"
    },
    {
      "anonymous": false,
      "inputs": [
        {
          "indexed": false,
          "internalType": "uint256",
          "name": "_totalSupply",
          "type": "uint256"
        },
        {
          "indexed": false,
          "internalType": "uint256",
          "name": "_availableSupply",
          "type": "uint256"
        }
      ],
      "name": "newLiquidity",
      "type": "event"
    },
    {
      "anonymous": false,
      "inputs": [
        {
          "indexed": false,
          "internalType": "string",
          "name": "_name",
          "type": "string"
        }
      ],
      "name": "newRegistered",
      "type": "event"
    },
    {
      "anonymous": false,
      "inputs": [
        {
          "indexed": false,
          "internalType": "uint256",
          "name": "_amount",
          "type": "uint256"
        }
      ],
      "name": "newSell",
      "type": "event"
    },
    {
      "constant": true,
      "inputs": [],
      "name": "availableSupply",
      "outputs": [
        {
          "internalType": "uint256",
          "name": "",
          "type": "uint256"
        }
      ],
      "payable": false,
      "stateMutability": "view",
      "type": "function"
    },
    {
      "constant": true,
      "inputs": [],
      "name": "fees",
      "outputs": [
        {
          "internalType": "uint256",
          "name": "",
          "type": "uint256"
        }
      ],
      "payable": false,
      "stateMutability": "view",
      "type": "function"
    },
    {
      "constant": true,
      "inputs": [],
      "name": "getBalance",
      "outputs": [
        {
          "internalType": "uint256",
          "name": "",
          "type": "uint256"
        }
      ],
      "payable": false,
      "stateMutability": "view",
      "type": "function"
    },
    {
      "constant": true,
      "inputs": [],
      "name": "getName",
      "outputs": [
        {
          "internalType": "string",
          "name": "",
          "type": "string"
        }
      ],
      "payable": false,
      "stateMutability": "view",
      "type": "function"
    },
    {
      "constant": true,
      "inputs": [],
      "name": "multiplyToken",
      "outputs": [
        {
          "internalType": "uint256",
          "name": "",
          "type": "uint256"
        }
      ],
      "payable": false,
      "stateMutability": "view",
      "type": "function"
    },
    {
      "constant": true,
      "inputs": [],
      "name": "nameCasino",
      "outputs": [
        {
          "internalType": "string",
          "name": "",
          "type": "string"
        }
      ],
      "payable": false,
      "stateMutability": "view",
      "type": "function"
    },
    {
      "constant": true,
      "inputs": [],
      "name": "nameToken",
      "outputs": [
        {
          "internalType": "string",
          "name": "",
          "type": "string"
        }
      ],
      "payable": false,
      "stateMutability": "view",
      "type": "function"
    },
    {
      "constant": true,
      "inputs": [],
      "name": "owner",
      "outputs": [
        {
          "internalType": "address",
          "name": "",
          "type": "address"
        }
      ],
      "payable": false,
      "stateMutability": "view",
      "type": "function"
    },
    {
      "constant": true,
      "inputs": [],
      "name": "symbolToken",
      "outputs": [
        {
          "internalType": "string",
          "name": "",
          "type": "string"
        }
      ],
      "payable": false,
      "stateMutability": "view",
      "type": "function"
    },
    {
      "constant": true,
      "inputs": [],
      "name": "totalSupply",
      "outputs": [
        {
          "internalType": "uint256",
          "name": "",
          "type": "uint256"
        }
      ],
      "payable": false,
      "stateMutability": "view",
      "type": "function"
    },
    {
      "constant": false,
      "inputs": [
        {
          "internalType": "address",
          "name": "newOwner",
          "type": "address"
        }
      ],
      "name": "transferOwnership",
      "outputs": [],
      "payable": false,
      "stateMutability": "nonpayable",
      "type": "function"
    },
    {
      "constant": false,
      "inputs": [],
      "name": "addLiquidity",
      "outputs": [],
      "payable": true,
      "stateMutability": "payable",
      "type": "function"
    },
    {
      "constant": false,
      "inputs": [
        {
          "internalType": "string",
          "name": "_name",
          "type": "string"
        }
      ],
      "name": "register",
      "outputs": [],
      "payable": false,
      "stateMutability": "nonpayable",
      "type": "function"
    },
    {
      "constant": false,
      "inputs": [],
      "name": "buyToken",
      "outputs": [],
      "payable": true,
      "stateMutability": "payable",
      "type": "function"
    },
    {
      "constant": false,
      "inputs": [
        {
          "internalType": "uint256",
          "name": "_amount",
          "type": "uint256"
        }
      ],
      "name": "sellToken",
      "outputs": [],
      "payable": false,
      "stateMutability": "nonpayable",
      "type": "function"
    }
  ],
  "bytecode": "0x60806040523480156200001157600080fd5b506040516200198038038062001980833981810160405260a08110156200003757600080fd5b81019080805160405193929190846401000000008211156200005857600080fd5b838201915060208201858111156200006f57600080fd5b82518660018202830111640100000000821117156200008d57600080fd5b8083526020830192505050908051906020019080838360005b83811015620000c3578082015181840152602081019050620000a6565b50505050905090810190601f168015620000f15780820380516001836020036101000a031916815260200191505b5060405260200180519060200190929190805160405193929190846401000000008211156200011f57600080fd5b838201915060208201858111156200013657600080fd5b82518660018202830111640100000000821117156200015457600080fd5b8083526020830192505050908051906020019080838360005b838110156200018a5780820151818401526020810190506200016d565b50505050905090810190601f168015620001b85780820380516001836020036101000a031916815260200191505b5060405260200180516040519392919084640100000000821115620001dc57600080fd5b83820191506020820185811115620001f357600080fd5b82518660018202830111640100000000821117156200021157600080fd5b8083526020830192505050908051906020019080838360005b83811015620002475780820151818401526020810190506200022a565b50505050905090810190601f168015620002755780820380516001836020036101000a031916815260200191505b506040526020018051906020019092919050505033600260006101000a81548173ffffffffffffffffffffffffffffffffffffffff021916908373ffffffffffffffffffffffffffffffffffffffff1602179055508460089080519060200190620002e29291906200032e565b50836009819055508260039080519060200190620003029291906200032e565b5081600490805190602001906200031b9291906200032e565b50806007819055505050505050620003dd565b828054600181600116156101000203166002900490600052602060002090601f016020900481019282601f106200037157805160ff1916838001178555620003a2565b82800160010185558215620003a2579182015b82811115620003a157825182559160200191906001019062000384565b5b509050620003b19190620003b5565b5090565b620003da91905b80821115620003d6576000816000905550600101620003bc565b5090565b90565b61159380620003ed6000396000f3fe6080604052600436106100e85760003560e01c80639af1d35a1161008a578063dd12d8a511610059578063dd12d8a514610410578063e8078d94146104a0578063f2c298be146104aa578063f2fde38b14610572576100e8565b80639af1d35a14610320578063a48217191461034b578063c5c6655814610355578063d14ee4da146103e5576100e8565b80632397e4d7116100c65780632397e4d7146101d35780636e3117841461020e5780637ecc2b561461029e5780638da5cb5b146102c9576100e8565b806312065fe0146100ed57806317d7de7c1461011857806318160ddd146101a8575b600080fd5b3480156100f957600080fd5b506101026105c3565b6040518082815260200191505060405180910390f35b34801561012457600080fd5b5061012d61060d565b6040518080602001828103825283818151815260200191508051906020019080838360005b8381101561016d578082015181840152602081019050610152565b50505050905090810190601f16801561019a5780820380516001836020036101000a031916815260200191505b509250505060405180910390f35b3480156101b457600080fd5b506101bd6106ef565b6040518082815260200191505060405180910390f35b3480156101df57600080fd5b5061020c600480360360208110156101f657600080fd5b81019080803590602001909291905050506106f5565b005b34801561021a57600080fd5b5061022361091f565b6040518080602001828103825283818151815260200191508051906020019080838360005b83811015610263578082015181840152602081019050610248565b50505050905090810190601f1680156102905780820380516001836020036101000a031916815260200191505b509250505060405180910390f35b3480156102aa57600080fd5b506102b36109bd565b6040518082815260200191505060405180910390f35b3480156102d557600080fd5b506102de6109c3565b604051808273ffffffffffffffffffffffffffffffffffffffff1673ffffffffffffffffffffffffffffffffffffffff16815260200191505060405180910390f35b34801561032c57600080fd5b506103356109e9565b6040518082815260200191505060405180910390f35b6103536109ef565b005b34801561036157600080fd5b5061036a610b94565b6040518080602001828103825283818151815260200191508051906020019080838360005b838110156103aa57808201518184015260208101905061038f565b50505050905090810190601f1680156103d75780820380516001836020036101000a031916815260200191505b509250505060405180910390f35b3480156103f157600080fd5b506103fa610c32565b6040518082815260200191505060405180910390f35b34801561041c57600080fd5b50610425610c38565b6040518080602001828103825283818151815260200191508051906020019080838360005b8381101561046557808201518184015260208101905061044a565b50505050905090810190601f1680156104925780820380516001836020036101000a031916815260200191505b509250505060405180910390f35b6104a8610cd6565b005b3480156104b657600080fd5b50610570600480360360208110156104cd57600080fd5b81019080803590602001906401000000008111156104ea57600080fd5b8201836020820111156104fc57600080fd5b8035906020019184600183028401116401000000008311171561051e57600080fd5b91908080601f016020809104026020016040519081016040528093929190818152602001838380828437600081840152601f19601f820116905080830192505050505050509192919290505050610d9d565b005b34801561057e57600080fd5b506105c16004803603602081101561059557600080fd5b81019080803573ffffffffffffffffffffffffffffffffffffffff1690602001909291905050506110af565b005b6000600160003373ffffffffffffffffffffffffffffffffffffffff1673ffffffffffffffffffffffffffffffffffffffff16815260200190815260200160002060000154905090565b6060600160003373ffffffffffffffffffffffffffffffffffffffff1673ffffffffffffffffffffffffffffffffffffffff1681526020019081526020016000206001018054600181600116156101000203166002900480601f0160208091040260200160405190810160405280929190818152602001828054600181600116156101000203166002900480156106e55780601f106106ba576101008083540402835291602001916106e5565b820191906000526020600020905b8154815290600101906020018083116106c857829003601f168201915b5050505050905090565b60055481565b60011515600160003373ffffffffffffffffffffffffffffffffffffffff1673ffffffffffffffffffffffffffffffffffffffff16815260200190815260200160002060020160009054906101000a900460ff1615151461075557600080fd5b80600160003373ffffffffffffffffffffffffffffffffffffffff1673ffffffffffffffffffffffffffffffffffffffff1681526020019081526020016000206000015410156107f0576040517f08c379a00000000000000000000000000000000000000000000000000000000081526004018080602001828103825260228152602001806115066022913960400191505060405180910390fd5b80600160003373ffffffffffffffffffffffffffffffffffffffff1673ffffffffffffffffffffffffffffffffffffffff1681526020019081526020016000206000016000828254039250508190555061084981611203565b3373ffffffffffffffffffffffffffffffffffffffff166108fc600754838161086e57fe5b049081150290604051600060405180830381858888f1935050505015801561089a573d6000803e3d6000fd5b506108a36112c6565b7f20260897c7c0889ca560a3fa35ff4a978867358286d281b6d641acba65722c4c600160003373ffffffffffffffffffffffffffffffffffffffff1673ffffffffffffffffffffffffffffffffffffffff168152602001908152602001600020600001546040518082815260200191505060405180910390a150565b60038054600181600116156101000203166002900480601f0160208091040260200160405190810160405280929190818152602001828054600181600116156101000203166002900480156109b55780601f1061098a576101008083540402835291602001916109b5565b820191906000526020600020905b81548152906001019060200180831161099857829003601f168201915b505050505081565b60065481565b600260009054906101000a900473ffffffffffffffffffffffffffffffffffffffff1681565b60095481565b60011515600160003373ffffffffffffffffffffffffffffffffffffffff1673ffffffffffffffffffffffffffffffffffffffff16815260200190815260200160002060020160009054906101000a900460ff16151514610a4f57600080fd5b3460075481026006541015610aaf576040517f08c379a00000000000000000000000000000000000000000000000000000000081526004018080602001828103825260378152602001806115286037913960400191505060405180910390fd5b6007543402600160003373ffffffffffffffffffffffffffffffffffffffff1673ffffffffffffffffffffffffffffffffffffffff16815260200190815260200160002060000160008282540192505081905550610b10600754340261131d565b610b186112c6565b7f56a3bc2feec16f8d8fb51db1acec14aefa409f6dd616666ec0e23838e162e4b1600160003373ffffffffffffffffffffffffffffffffffffffff1673ffffffffffffffffffffffffffffffffffffffff168152602001908152602001600020600001546040518082815260200191505060405180910390a150565b60088054600181600116156101000203166002900480601f016020809104026020016040519081016040528092919081815260200182805460018160011615610100020316600290048015610c2a5780601f10610bff57610100808354040283529160200191610c2a565b820191906000526020600020905b815481529060010190602001808311610c0d57829003601f168201915b505050505081565b60075481565b60048054600181600116156101000203166002900480601f016020809104026020016040519081016040528092919081815260200182805460018160011615610100020316600290048015610cce5780601f10610ca357610100808354040283529160200191610cce565b820191906000526020600020905b815481529060010190602001808311610cb157829003601f168201915b505050505081565b600260009054906101000a900473ffffffffffffffffffffffffffffffffffffffff1673ffffffffffffffffffffffffffffffffffffffff163373ffffffffffffffffffffffffffffffffffffffff1614610d3057600080fd5b600754340260056000828254019250508190555060075434026006600082825401925050819055507f9eb7ffa33be81c65083071381966883303abd225befe35583735423087e46337600554600654604051808381526020018281526020019250505060405180910390a1565b60001515600160003373ffffffffffffffffffffffffffffffffffffffff1673ffffffffffffffffffffffffffffffffffffffff16815260200190815260200160002060020160009054906101000a900460ff16151514610e66576040517f08c379a000000000000000000000000000000000000000000000000000000000815260040180806020018281038252601e8152602001807f566f757320657465732064656a6120636f6e6e7520647520436173696e6f000081525060200191505060405180910390fd5b80600160003373ffffffffffffffffffffffffffffffffffffffff1673ffffffffffffffffffffffffffffffffffffffff1681526020019081526020016000206001019080519060200190610ebc9291906113e0565b5060018060003373ffffffffffffffffffffffffffffffffffffffff1673ffffffffffffffffffffffffffffffffffffffff16815260200190815260200160002060020160006101000a81548160ff02191690831515021790555060006040518060800160405280600081526020018381526020016001151581526020013373ffffffffffffffffffffffffffffffffffffffff1681525090806001815401808255809150509060018203906000526020600020906003020160009091929091909150600082015181600001556020820151816001019080519060200190610fa5929190611460565b5060408201518160020160006101000a81548160ff02191690831515021790555060608201518160020160016101000a81548173ffffffffffffffffffffffffffffffffffffffff021916908373ffffffffffffffffffffffffffffffffffffffff1602179055505050507f6bb826e40ad8f8913265d7500adfb7e0b9c967febe190213625cc1b86281f845816040518080602001828103825283818151815260200191508051906020019080838360005b83811015611072578082015181840152602081019050611057565b50505050905090810190601f16801561109f5780820380516001836020036101000a031916815260200191505b509250505060405180910390a150565b600260009054906101000a900473ffffffffffffffffffffffffffffffffffffffff1673ffffffffffffffffffffffffffffffffffffffff163373ffffffffffffffffffffffffffffffffffffffff161461110957600080fd5b600073ffffffffffffffffffffffffffffffffffffffff168173ffffffffffffffffffffffffffffffffffffffff16141561114357600080fd5b8073ffffffffffffffffffffffffffffffffffffffff16600260009054906101000a900473ffffffffffffffffffffffffffffffffffffffff1673ffffffffffffffffffffffffffffffffffffffff167f8be0079c531659141344cd1fd0a4f28419497f9722a3daafe3b4186f6b6457e060405160405180910390a380600260006101000a81548173ffffffffffffffffffffffffffffffffffffffff021916908373ffffffffffffffffffffffffffffffffffffffff16021790555050565b60008090505b6000805490508110156112c2573373ffffffffffffffffffffffffffffffffffffffff166000828154811061123a57fe5b906000526020600020906003020160020160019054906101000a900473ffffffffffffffffffffffffffffffffffffffff1673ffffffffffffffffffffffffffffffffffffffff1614156112b557816000828154811061129657fe5b9060005260206000209060030201600001600082825403925050819055505b8080600101915050611209565b5050565b600080905060008090505b60008054905081101561130e57600081815481106112eb57fe5b9060005260206000209060030201600001548201915080806001019150506112d1565b50806005540360068190555050565b60008090505b6000805490508110156113dc573373ffffffffffffffffffffffffffffffffffffffff166000828154811061135457fe5b906000526020600020906003020160020160019054906101000a900473ffffffffffffffffffffffffffffffffffffffff1673ffffffffffffffffffffffffffffffffffffffff1614156113cf5781600082815481106113b057fe5b9060005260206000209060030201600001600082825401925050819055505b8080600101915050611323565b5050565b828054600181600116156101000203166002900490600052602060002090601f016020900481019282601f1061142157805160ff191683800117855561144f565b8280016001018555821561144f579182015b8281111561144e578251825591602001919060010190611433565b5b50905061145c91906114e0565b5090565b828054600181600116156101000203166002900490600052602060002090601f016020900481019282601f106114a157805160ff19168380011785556114cf565b828001600101855582156114cf579182015b828111156114ce5782518255916020019190600101906114b3565b5b5090506114dc91906114e0565b5090565b61150291905b808211156114fe5760008160009055506001016114e6565b5090565b9056fe70617320617373657a20646520746f6b656e20706f7572206c6520726574726169744c6520636173696e6f206e27612070617320617373657a20646520666f6e647320706f7572206365747465207472616e73616374696f6ea265627a7a723158208f8d308a58eea385be0f42db6c0f67a1fb43de848945ffa6f5d70d9382f26fdb64736f6c63430005100032",
  "source": "pragma solidity ^0.5.16;\n\nimport \"./token.sol\" ; \n\n// SPDX-License-Identifier: MIT\n\ncontract Casino is Token {\n    string public nameCasino ;\n    uint public fees ;\n\n    constructor (string memory _nameCasino, uint _fees, string memory _nameToken, string memory _symbolToken, uint _multiplyToken ) public {\n        nameCasino = _nameCasino ; \n        fees = _fees ; \n        Token.nameToken = _nameToken ; \n        Token.symbolToken = _symbolToken ;  \n        Token.multiplyToken = _multiplyToken ; \n    }\n\n    event newLiquidity(uint _totalSupply, uint _availableSupply) ; \n    event newRegistered(string _name); \n    event newBuy(uint _amount);\n    event newSell(uint _amount);  \n\n    function addLiquidity() payable external onlyOwner(){\n        Token.totalSupply += msg.value * Token.multiplyToken;\n        Token.availableSupply += msg.value * Token.multiplyToken; \n        emit newLiquidity(Token.totalSupply, Token.availableSupply);\n    }\n    \n    function register(string memory _name) public {\n        require (user[msg.sender].registered == false, \"Vous etes deja connu du Casino\"); \n        user[msg.sender].name = _name ; \n        user[msg.sender].registered = true ; \n        users.push(User(0, _name, true, msg.sender)); \n        emit newRegistered(_name);\n    }\n\n    function buyToken() payable external isRegistered() onlyHaveToken(msg.value){\n        user[msg.sender].balance += msg.value * Token.multiplyToken ; \n        increaseBalances(msg.value * Token.multiplyToken);\n        Token.updateAvailableSupply();\n        emit newBuy(user[msg.sender].balance);\n    }\n\n    function sellToken(uint _amount) external isRegistered() {\n        require (user[msg.sender].balance >= _amount, \"pas assez de token pour le retrait\"); \n        user[msg.sender].balance -= _amount ; \n        decreaseBalances(_amount);\n        msg.sender.transfer(_amount/Token.multiplyToken ); \n        Token.updateAvailableSupply(); \n        emit newSell(user[msg.sender].balance);\n    }\n\n    function payFees() internal {\n        user[msg.sender].balance -= fees ;\n        decreaseBalances(fees); \n        availableSupply += fees; \n        Token.updateAvailableSupply();\n    }\n\n    function increaseBalances(uint _amount) private {\n        for (uint i = 0 ; i < users.length ; i ++){\n            if (users[i].id == msg.sender){\n                users[i].balance += _amount ; \n            }\n        }\n    }\n\n    function decreaseBalances(uint _amount) private {\n        for (uint i = 0 ; i < users.length ; i ++){\n            if (users[i].id == msg.sender){\n                users[i].balance -= _amount ; \n            }\n        }\n    }\n    \n}",
  "sourcePath": "/home/jules/Documents/0-Cours/ETH/ProjetEth/contracts/casino.sol",
  "compiler": {
    "name": "solc",
    "version": "0.5.16+commit.9c3226ce.Emscripten.clang"
  },
  "schemaVersion": "3.3.3",
  "updatedAt": "2021-01-24T17:42:30.452Z",
  "devdoc": {
    "methods": {
      "transferOwnership(address)": {
        "details": "Allows the current owner to transfer control of the contract to a newOwner.",
        "params": {
          "newOwner": "The address to transfer ownership to."
        }
      }
    }
  },
  "userdoc": {
    "methods": {}
  }
}