{
  "contractName": "UserContract",
  "abi": [
    {
      "constant": true,
      "inputs": [],
      "name": "getBalance",
      "outputs": [
        {
          "internalType": "uint256",
          "name": "",
          "type": "uint256"
        }
      ],
      "payable": false,
      "stateMutability": "view",
      "type": "function"
    },
    {
      "constant": true,
      "inputs": [],
      "name": "getName",
      "outputs": [
        {
          "internalType": "string",
          "name": "",
          "type": "string"
        }
      ],
      "payable": false,
      "stateMutability": "view",
      "type": "function"
    }
  ],
  "bytecode": "0x608060405234801561001057600080fd5b5061023d806100206000396000f3fe608060405234801561001057600080fd5b50600436106100365760003560e01c806312065fe01461003b57806317d7de7c14610059575b600080fd5b6100436100dc565b6040518082815260200191505060405180910390f35b610061610126565b6040518080602001828103825283818151815260200191508051906020019080838360005b838110156100a1578082015181840152602081019050610086565b50505050905090810190601f1680156100ce5780820380516001836020036101000a031916815260200191505b509250505060405180910390f35b6000600160003373ffffffffffffffffffffffffffffffffffffffff1673ffffffffffffffffffffffffffffffffffffffff16815260200190815260200160002060000154905090565b6060600160003373ffffffffffffffffffffffffffffffffffffffff1673ffffffffffffffffffffffffffffffffffffffff1681526020019081526020016000206001018054600181600116156101000203166002900480601f0160208091040260200160405190810160405280929190818152602001828054600181600116156101000203166002900480156101fe5780601f106101d3576101008083540402835291602001916101fe565b820191906000526020600020905b8154815290600101906020018083116101e157829003601f168201915b505050505090509056fea265627a7a72315820066d821b874b58d9fc39e42ae740091c1687b1d1db9274d824a9f491058115ef64736f6c63430005100032",
  "source": "pragma solidity ^0.5.16;\n\ncontract UserContract {\n\n    struct User {\n        uint balance;\n        string name ;\n        bool registered ;\n        address id ;  \n    }\n\n    User[] users ; \n\n    mapping (address => User) internal user ;\n\n    modifier isRegistered () {\n        require (user[msg.sender].registered == true ) ; \n        _; \n    }\n    \n    function getBalance () external view returns (uint) {\n        return user[msg.sender].balance ; \n    }\n    \n    function getName () external view returns ( string memory) {\n        return user[msg.sender].name ; \n    }\n    \n\n}",
  "sourcePath": "/home/jules/Documents/0-Cours/ETH/ProjetEth/contracts/user.sol",
  "compiler": {
    "name": "solc",
    "version": "0.5.16+commit.9c3226ce.Emscripten.clang"
  },
  "schemaVersion": "3.3.3",
  "updatedAt": "2021-01-24T17:42:30.466Z",
  "devdoc": {
    "methods": {}
  },
  "userdoc": {
    "methods": {}
  }
}