{
  "contractName": "zzzz",
  "abi": [
    {
      "inputs": [
        {
          "internalType": "string",
          "name": "_name",
          "type": "string"
        },
        {
          "internalType": "uint256",
          "name": "_capital",
          "type": "uint256"
        },
        {
          "internalType": "uint256",
          "name": "_fees",
          "type": "uint256"
        }
      ],
      "payable": false,
      "stateMutability": "nonpayable",
      "type": "constructor"
    },
    {
      "constant": false,
      "inputs": [
        {
          "internalType": "string",
          "name": "_name",
          "type": "string"
        }
      ],
      "name": "register",
      "outputs": [],
      "payable": false,
      "stateMutability": "nonpayable",
      "type": "function"
    },
    {
      "constant": true,
      "inputs": [],
      "name": "myBalance",
      "outputs": [
        {
          "internalType": "uint256",
          "name": "",
          "type": "uint256"
        }
      ],
      "payable": false,
      "stateMutability": "view",
      "type": "function"
    },
    {
      "constant": true,
      "inputs": [],
      "name": "getBalanceOfCasino",
      "outputs": [
        {
          "internalType": "uint256",
          "name": "",
          "type": "uint256"
        }
      ],
      "payable": false,
      "stateMutability": "view",
      "type": "function"
    },
    {
      "constant": true,
      "inputs": [
        {
          "internalType": "address",
          "name": "_address",
          "type": "address"
        }
      ],
      "name": "balanceOf",
      "outputs": [
        {
          "internalType": "uint256",
          "name": "",
          "type": "uint256"
        }
      ],
      "payable": false,
      "stateMutability": "view",
      "type": "function"
    },
    {
      "constant": false,
      "inputs": [
        {
          "internalType": "address",
          "name": "_address",
          "type": "address"
        },
        {
          "internalType": "uint256",
          "name": "_amount",
          "type": "uint256"
        }
      ],
      "name": "transfer",
      "outputs": [],
      "payable": false,
      "stateMutability": "nonpayable",
      "type": "function"
    },
    {
      "constant": false,
      "inputs": [],
      "name": "depositMoney",
      "outputs": [],
      "payable": true,
      "stateMutability": "payable",
      "type": "function"
    },
    {
      "constant": false,
      "inputs": [
        {
          "internalType": "uint256",
          "name": "_amount",
          "type": "uint256"
        }
      ],
      "name": "withdrawMoney",
      "outputs": [],
      "payable": false,
      "stateMutability": "nonpayable",
      "type": "function"
    },
    {
      "constant": false,
      "inputs": [
        {
          "internalType": "uint256",
          "name": "_amount",
          "type": "uint256"
        },
        {
          "internalType": "uint256",
          "name": "_choice",
          "type": "uint256"
        }
      ],
      "name": "headsTails",
      "outputs": [],
      "payable": false,
      "stateMutability": "nonpayable",
      "type": "function"
    },
    {
      "constant": false,
      "inputs": [
        {
          "internalType": "uint256",
          "name": "_amount",
          "type": "uint256"
        },
        {
          "internalType": "uint256",
          "name": "_choice",
          "type": "uint256"
        }
      ],
      "name": "wheel",
      "outputs": [],
      "payable": false,
      "stateMutability": "nonpayable",
      "type": "function"
    }
  ],
  "bytecode": "0x608060405260016002553480156200001657600080fd5b506040516200149e3803806200149e833981810160405260608110156200003c57600080fd5b81019080805160405193929190846401000000008211156200005d57600080fd5b838201915060208201858111156200007457600080fd5b82518660018202830111640100000000821117156200009257600080fd5b8083526020830192505050908051906020019080838360005b83811015620000c8578082015181840152602081019050620000ab565b50505050905090810190601f168015620000f65780820380516001836020036101000a031916815260200191505b50604052602001805190602001909291908051906020019092919050505082600090805190602001906200012c92919062000144565b508160018190555080600381905550505050620001f3565b828054600181600116156101000203166002900490600052602060002090601f016020900481019282601f106200018757805160ff1916838001178555620001b8565b82800160010185558215620001b8579182015b82811115620001b75782518255916020019190600101906200019a565b5b509050620001c79190620001cb565b5090565b620001f091905b80821115620001ec576000816000905550600101620001d2565b5090565b90565b61129b80620002036000396000f3fe6080604052600436106100865760003560e01c80635487692111610059578063548769211461014a57806370a0823114610185578063a9059cbb146101ea578063c9116b6914610245578063f2c298be1461027057610086565b806316c05aa21461008b5780631d22bea8146100955780632430d1ce146100da5780632c266da314610105575b600080fd5b610093610338565b005b3480156100a157600080fd5b506100d8600480360360408110156100b857600080fd5b81019080803590602001909291908035906020019092919050505061040c565b005b3480156100e657600080fd5b506100ef61070a565b6040518082815260200191505060405180910390f35b34801561011157600080fd5b506101486004803603604081101561012857600080fd5b810190808035906020019092919080359060200190929190505050610714565b005b34801561015657600080fd5b506101836004803603602081101561016d57600080fd5b8101908080359060200190929190505050610997565b005b34801561019157600080fd5b506101d4600480360360208110156101a857600080fd5b81019080803573ffffffffffffffffffffffffffffffffffffffff169060200190929190505050610b4e565b6040518082815260200191505060405180910390f35b3480156101f657600080fd5b506102436004803603604081101561020d57600080fd5b81019080803573ffffffffffffffffffffffffffffffffffffffff16906020019092919080359060200190929190505050610c1c565b005b34801561025157600080fd5b5061025a610d78565b6040518082815260200191505060405180910390f35b34801561027c57600080fd5b506103366004803603602081101561029357600080fd5b81019080803590602001906401000000008111156102b057600080fd5b8201836020820111156102c257600080fd5b803590602001918460018302840111640100000000831117156102e457600080fd5b91908080601f016020809104026020016040519081016040528093929190818152602001838380828437600081840152601f19601f820116905080830192505050505050509192919290505050610e44565b005b6001151561034533610fad565b1515146103ba576040517f08c379a00000000000000000000000000000000000000000000000000000000081526004018080602001828103825260208152602001807f5574696c6973617465757220696e636f6e6e75206465206c612062616e71756581525060200191505060405180910390fd5b34600460003373ffffffffffffffffffffffffffffffffffffffff1673ffffffffffffffffffffffffffffffffffffffff16815260200190815260200160002060000160008282540192505081905550565b6001151561041933610fad565b15151461048e576040517f08c379a00000000000000000000000000000000000000000000000000000000081526004018080602001828103825260208152602001807f5574696c6973617465757220696e636f6e6e75206465206c612062616e71756581525060200191505060405180910390fd5b600460003373ffffffffffffffffffffffffffffffffffffffff1673ffffffffffffffffffffffffffffffffffffffff16815260200190815260200160002060000154821115610529576040517f08c379a00000000000000000000000000000000000000000000000000000000081526004018080602001828103825260238152602001806112446023913960400191505060405180910390fd5b60248110801561053a575060008110155b6105ac576040517f08c379a000000000000000000000000000000000000000000000000000000000815260040180806020018281038252601f8152602001807f6e6f6d627265206e6f6e20636f6d7072697320656e747265203020657420310081525060200191505060405180910390fd5b60006105b8602461101e565b90508082141561069c5760008114156106365760248302600460003373ffffffffffffffffffffffffffffffffffffffff1673ffffffffffffffffffffffffffffffffffffffff1681526020019081526020016000206000016000828254019250508190555060248302600160008282540392505081905550610697565b82600460003373ffffffffffffffffffffffffffffffffffffffff1673ffffffffffffffffffffffffffffffffffffffff16815260200190815260200160002060000160008282540192505081905550826001600082825403925050819055505b6106fd565b82600460003373ffffffffffffffffffffffffffffffffffffffff1673ffffffffffffffffffffffffffffffffffffffff16815260200190815260200160002060000160008282540392505081905550826001600082825401925050819055505b6107056110b3565b505050565b6000600154905090565b6001151561072133610fad565b151514610796576040517f08c379a00000000000000000000000000000000000000000000000000000000081526004018080602001828103825260208152602001807f5574696c6973617465757220696e636f6e6e75206465206c612062616e71756581525060200191505060405180910390fd5b600460003373ffffffffffffffffffffffffffffffffffffffff1673ffffffffffffffffffffffffffffffffffffffff16815260200190815260200160002060000154821115610831576040517f08c379a00000000000000000000000000000000000000000000000000000000081526004018080602001828103825260238152602001806112446023913960400191505060405180910390fd5b600281108015610842575060008110155b6108b4576040517f08c379a000000000000000000000000000000000000000000000000000000000815260040180806020018281038252601f8152602001807f6e6f6d627265206e6f6e20636f6d7072697320656e747265203020657420310081525060200191505060405180910390fd5b806108bf600261101e565b141561092a5781600460003373ffffffffffffffffffffffffffffffffffffffff1673ffffffffffffffffffffffffffffffffffffffff168152602001908152602001600020600001600082825401925050819055508160016000828254039250508190555061098b565b81600460003373ffffffffffffffffffffffffffffffffffffffff1673ffffffffffffffffffffffffffffffffffffffff16815260200190815260200160002060000160008282540392505081905550816001600082825401925050819055505b6109936110b3565b5050565b600115156109a433610fad565b151514610a19576040517f08c379a00000000000000000000000000000000000000000000000000000000081526004018080602001828103825260208152602001807f5574696c6973617465757220696e636f6e6e75206465206c612062616e71756581525060200191505060405180910390fd5b600460003373ffffffffffffffffffffffffffffffffffffffff1673ffffffffffffffffffffffffffffffffffffffff16815260200190815260200160002060000154811115610ab4576040517f08c379a00000000000000000000000000000000000000000000000000000000081526004018080602001828103825260238152602001806112446023913960400191505060405180910390fd5b80600460003373ffffffffffffffffffffffffffffffffffffffff1673ffffffffffffffffffffffffffffffffffffffff168152602001908152602001600020600001600082825403925050819055503373ffffffffffffffffffffffffffffffffffffffff166108fc829081150290604051600060405180830381858888f19350505050158015610b4a573d6000803e3d6000fd5b5050565b600060011515610b5d83610fad565b151514610bd2576040517f08c379a00000000000000000000000000000000000000000000000000000000081526004018080602001828103825260208152602001807f5574696c6973617465757220696e636f6e6e75206465206c612062616e71756581525060200191505060405180910390fd5b600460008373ffffffffffffffffffffffffffffffffffffffff1673ffffffffffffffffffffffffffffffffffffffff168152602001908152602001600020600001549050919050565b80600460003373ffffffffffffffffffffffffffffffffffffffff1673ffffffffffffffffffffffffffffffffffffffff168152602001908152602001600020600001541015610cd4576040517f08c379a00000000000000000000000000000000000000000000000000000000081526004018080602001828103825260138152602001807f50617320617373657a206427617267656e74270000000000000000000000000081525060200191505060405180910390fd5b80600460003373ffffffffffffffffffffffffffffffffffffffff1673ffffffffffffffffffffffffffffffffffffffff1681526020019081526020016000206000016000828254039250508190555080600460008473ffffffffffffffffffffffffffffffffffffffff1673ffffffffffffffffffffffffffffffffffffffff168152602001908152602001600020600001600082825401925050819055505050565b600060011515610d8733610fad565b151514610dfc576040517f08c379a00000000000000000000000000000000000000000000000000000000081526004018080602001828103825260208152602001807f5574696c6973617465757220696e636f6e6e75206465206c612062616e71756581525060200191505060405180910390fd5b600460003373ffffffffffffffffffffffffffffffffffffffff1673ffffffffffffffffffffffffffffffffffffffff16815260200190815260200160002060000154905090565b60001515600460003373ffffffffffffffffffffffffffffffffffffffff1673ffffffffffffffffffffffffffffffffffffffff16815260200190815260200160002060020160009054906101000a900460ff16151514610ef0576040517f08c379a00000000000000000000000000000000000000000000000000000000081526004018080602001828103825260218152602001806112236021913960400191505060405180910390fd5b80600460003373ffffffffffffffffffffffffffffffffffffffff1673ffffffffffffffffffffffffffffffffffffffff1681526020019081526020016000206001019080519060200190610f4692919061117d565b506001600460003373ffffffffffffffffffffffffffffffffffffffff1673ffffffffffffffffffffffffffffffffffffffff16815260200190815260200160002060020160006101000a81548160ff021916908315150217905550610faa611119565b50565b600060011515600460008473ffffffffffffffffffffffffffffffffffffffff1673ffffffffffffffffffffffffffffffffffffffff16815260200190815260200160002060020160009054906101000a900460ff16151514156110145760019050611019565b600090505b919050565b600080824233600254604051602001808481526020018373ffffffffffffffffffffffffffffffffffffffff1673ffffffffffffffffffffffffffffffffffffffff1660601b815260140182815260200193505050506040516020818303038152906040528051906020012060001c8161109457fe5b0690508090508060026000828254019250508190555080915050919050565b600354600460003373ffffffffffffffffffffffffffffffffffffffff1673ffffffffffffffffffffffffffffffffffffffff16815260200190815260200160002060000160008282540392505081905550600354600160008282540192505081905550565b6064600460003373ffffffffffffffffffffffffffffffffffffffff1673ffffffffffffffffffffffffffffffffffffffff168152602001908152602001600020600001600082825401925050819055506064600160008282540392505081905550565b828054600181600116156101000203166002900490600052602060002090601f016020900481019282601f106111be57805160ff19168380011785556111ec565b828001600101855582156111ec579182015b828111156111eb5782518255916020019190600101906111d0565b5b5090506111f991906111fd565b5090565b61121f91905b8082111561121b576000816000905550600101611203565b5090565b9056fe566f757320657465732064656a6120636f6e6e75206465206c612062616e71756550617320617373657a206427617267656e742073757220766f74726520636f6d707465a265627a7a72315820c5730c91d6ef0812b2942185bd27a678d4fea34d967de6d5c3947e842f4e102164736f6c63430005100032",
  "source": "pragma solidity ^0.5.16;\n\n// SPDX-License-Identifier: MIT\n\ncontract zzzz {\n    string name ;\n    uint capital;\n    uint nonce = 1 ; \n    uint fees ; \n    \n    constructor(string memory _name, uint _capital, uint _fees) public {\n        name = _name ;\n        capital = _capital; \n        fees = _fees ; \n    }\n    \n    struct User {\n        uint balance;\n        string name ; \n        bool registered ; \n    }\n    \n    mapping (address => User) user;\n    \n    function register(string memory _name) public {\n        require (user[msg.sender].registered == false, \"Vous etes deja connu de la banque\"); \n        user[msg.sender].name = _name ; \n        user[msg.sender].registered = true ; \n        welcomeBonus(); \n    }\n    \n    function checkRegistered(address _address) private view returns(bool){\n        if (user[_address].registered == true){\n            return true ; \n        } else {\n            return false ; \n        }\n    }\n    \n    function payFees() private {\n        user[msg.sender].balance -= fees ; \n        capital += fees ; \n    }\n    \n    function myBalance() public view returns(uint) {\n        require(checkRegistered(msg.sender) == true, \"Utilisateur inconnu de la banque\");\n        return user[msg.sender].balance;\n    }\n    \n    function getBalanceOfCasino() public view returns (uint){\n        return capital ; \n    }\n    \n    function balanceOf(address _address) public view returns (uint) {\n        require(checkRegistered(_address) == true, \"Utilisateur inconnu de la banque\");\n        return user[_address].balance;\n    }\n    \n    function welcomeBonus() private {\n        user[msg.sender].balance += 100;\n        capital -= 100 ; \n    }\n      \n    function transfer(address _address, uint _amount) public {\n        require(user[msg.sender].balance >= _amount, \"Pas assez d'argent'\");\n        user[msg.sender].balance -= _amount;\n        user[_address].balance += _amount;\n    }\n    \n    function depositMoney() external payable {\n        require(checkRegistered(msg.sender) == true, \"Utilisateur inconnu de la banque\");\n        user[msg.sender].balance += msg.value ; \n    }\n    \n    function withdrawMoney(uint _amount) external {\n        require(checkRegistered(msg.sender) == true, \"Utilisateur inconnu de la banque\");\n        require(_amount <= user[msg.sender].balance, \"Pas assez d'argent sur votre compte\");\n        user[msg.sender].balance -= _amount ; \n        msg.sender.transfer(_amount); \n    }\n    \n    function random(uint _n) private returns (uint) {\n        uint randomnumber = uint(keccak256(abi.encodePacked(block.timestamp, msg.sender, nonce))) % _n;\n        randomnumber = randomnumber ;\n        nonce += randomnumber;        \n        return randomnumber;\n    }\n    \n    function headsTails (uint _amount, uint _choice) public {\n        require(checkRegistered(msg.sender) == true, \"Utilisateur inconnu de la banque\");\n        require(_amount <= user[msg.sender].balance, \"Pas assez d'argent sur votre compte\");\n        require (_choice < 2 && _choice >= 0, \"nombre non compris entre 0 et 1\"); \n        if (random(2) == _choice){\n            user[msg.sender].balance += _amount ; \n            capital -= _amount ; \n        } else {\n            user[msg.sender].balance -= _amount ;\n            capital += _amount ;\n        }\n        payFees(); \n    }\n    \n    function wheel (uint _amount, uint _choice) public {\n        require(checkRegistered(msg.sender) == true, \"Utilisateur inconnu de la banque\");\n        require(_amount <= user[msg.sender].balance, \"Pas assez d'argent sur votre compte\");\n        require (_choice < 36 && _choice >= 0, \"nombre non compris entre 0 et 1\"); \n        uint r = random(36) ; \n        \n        if (_choice == r){\n            if (r == 0) {\n                user[msg.sender].balance += _amount * 36;\n                capital -= _amount * 36;\n            } else {\n                user[msg.sender].balance += _amount ;\n                capital -= _amount ;\n            }\n        } else {\n            user[msg.sender].balance -= _amount ;\n            capital += _amount ;\n        }\n        payFees(); \n    }\n    \n    \n    \n}\n\n\n\n\n\n\n\n",
  "sourcePath": "/home/jules/Documents/0-Cours/ETH/ProjetEth/contracts/zzz.sol",
  "compiler": {
    "name": "solc",
    "version": "0.5.16+commit.9c3226ce.Emscripten.clang"
  },
  "schemaVersion": "3.3.3",
  "updatedAt": "2021-01-24T17:29:19.984Z",
  "devdoc": {
    "methods": {}
  },
  "userdoc": {
    "methods": {}
  }
}